:0300000002099E54
:0C099E00787FE4F6D8FD7581290209E598
:040F3A005390EF22BF
:040F3E0043901022AA
:040F42005380EF22C7
:040F460043801022B2
:040F4A0053D8FD2259
:040F4E0043D8022260
:060F0500120F42120F4A18
:040F0B0053907F225E
:040F52004390802226
:100B9B00759AFF759BFF7591FF7592FF75A1FF7598
:100BAB00A2FF75D9FF75DAFF7580FF7590FF75D8B9
:100BBB00FF75A0FFD2AF120F05120B2390004BE075
:100BCB0030E7F95480F01204A88F1F8E1E8D1D8CF8
:100BDB001CEC4D4E4F600E120F3A120F46120F4E79
:100BEB00120F528006120F3E120F05120F5980CCB6
:100CA7000000000000000005000A0BB800C800643F
:100CB70000020000000100040000FFFFFFFFFFFF2C
:100CC7000014021304080905036102130408090547
:100CD70003A10213040809050341021304080A05C6
:100CE700035B021304080C0502DD021304080C055C
:020CF7000306F2
:040F19004100610032
:0B0EEF00900CB1E493FE740193FF220D
:0B0EFA00900CB5E493FE740193FF22FE
:080F2200900CAF740193FF2253
:030F56007F0122F6
:100DF400AD07ED75F008A424CFF582E4340CF58337
:100E0400E493FEED75F008A424D0F582E4340CF5E7
:0C0E140083E4937C002400FFEC3EFE22EF
:100EC400EF75F008A424CCF582E4340CF583E493A4
:020ED400FF22FB
:080F2A00900CA9740193FF2251
:0D0ED60074432FF582E43400F583E0FF2221
:080F3200900000E0C313FF2250
:0A0F0F00900000E075F00384FF225B
:100EAF00120DF4EF7803C333CE33CED8F9FF7C00A5
:050EBF007D0A02082875
:100C5300E4FBFAF50BF50AF509F508750B0FF50A30
:100C6300750906F508EBC39417748094805032AF6E
:100C73000BAE0AAD09AC0878011208B18F0B8E0ACE
:100C83008D098C0830D71774132AF582E43400F5E4
:100C930083EBF00AEAC394067480948050030B80BC
:030CA300C48A29D7
:010CA600222B
:100DC700EF14601214601414601114601524047079
:100DD70019900CC98008900CCA8003900CCBE4933F
:0D0DE700FF22900CBB740193FF227F0022BD
:100D4500900CAD740193900000F0900CC774019362
:100D550090004EF0120C53E4FFEFC395295020EF9D
:100D650075F008A424CDF582E4340CF583E493FEF4
:100D750074432FF582E43400F583EEF00F80DAE456
:060D850090004CF0A3F009
:010D8B002245
:1004A800E4F508F50CF50BF50AF509F510F50FF567
:1004B8000EF50D120F5C50030205C4120E458F0C89
:1004C8008E0B8D0A8C09E4FBEBC395295047AF0CC2
:1004D800AE0BAD0AAC0978011208B18F0C8E0B8DEA
:1004E8000A8C0930D72CE47F01FEFDFC74132BF530
:1004F80082E43400F583E0F9F81208C4E5104FF5FA
:1005080010E50F4EF50FE50E4DF50EE50D4CF50D0A
:1005180005080B80B3AF087E00C3EF940274809483
:10052800804018D200EF9403748094804005120F25
:100538005F8008120F2AEF6002C20020002CE4FF3F
:10054800FEFDFCAB10AA0FA90EA80DC31208A060EF
:100558001090004DE004F0700690004CE004F0802C
:1005680020E490004CF0A3F0801790004AE004F0DB
:100578007006900049E004F0E4F510F50FF50EF56B
:100588000D120EEFD390004DE09F90004CE09E407E
:100598000A120F5FE490004CF0A3F0D390004AE0F9
:1005A800942C900049E09401401D120F5F90006167
:1005B8007401F0E4900049F0A3F0800B900CB7E4CC
:0F05C800740193FF1205D8AF10AE0FAD0EAC0D3E
:0105D7002201
:03005B00020D8C07
:100D8C00C0E0C0F0C083C082C0D075D000C000C02D
:100D9C0001C002C003C004C005C006C007120AA9E6
:100DAC00D007D006D005D004D003D002D001D0009B
:0B0DBC00D0D0D082D083D0F0D0E03245
:040F1D004100680027
:1006F70075F00290004F1208D7E0FEA3E0FFE51364
:1007070075F0029000190208D7E51275F002900003
:10071700010208D7E51275F0029000310208D7747C
:10072700252516F582E43400F58322D3E5149FEEE0
:100737006480F8E51364809822743D2512F582E4FD
:100747003400F58322D3FFED9FEE6480F8EC6480DC
:100757009822745B2512F582E43400F58322E004C5
:10076700F0740D2512F582E43400F58322E5137544
:10077700F00290004F0208D7E4F0FFFEFDFCAB2427
:10078700AA23A922A821C30208A0FEC3E5159FEE4C
:100797006480F8E51464809822E5245528FFE52352
:1007A7005527FEE5225526FDE5215525FC227E002D
:1007B700900064E0FCA3E0FD1208168EE78FE67F49
:1007C7000222742B2512F582E43400F58322E0FE21
:1007D700A3E0FF75F00222A4FFE0C39FE5F0648069
:1007E700F8748098227D0A120828AD037C0002085D
:1007F70016E0FCA3E0C39F2290004EE0FB3395E098
:0F080700FAEBAE022290004EE0FF3395E0FE22A6
:0C0EE300EF4E6007EF1F70F81E80F52234
:020A2A008F1B20
:100A2C00120ED690006BEFF0AF1B120EC4EFFB90C2
:100A3C000065E025E0FF900064E033FE7C001207C7
:100A4C00ECE51B1207121207F8EC9E500990006B94
:100A5C00E06049148036AF1B120EC4EFFB900064AB
:100A6C00E0FEA3E0FF7C007D071208161207EC7570
:100A7C00F002E51B120715E0FCA3E0D39FEC9E40AF
:100A8C001B90006BE0FF647E6012EF04FF74432543
:0C0A9C001BF582E43400F583EFF0D2017A
:010AA800222B
:100AA900C202900069E0120707E5E5F0A3E5E4F06A
:100AB900900069E004F0E0C39529400BE4F0900050
:100AC9004BE04480F08002D2027F02120DC7EFC4CE
:100AD90054F0F5E1900069E0FF120EC41207B51257
:100AE9000DC7EFC454F0FEC006E4FF120DC7D0E0F5
:100AF9002FF5E1900069E0FF120ED6E5E254804F30
:100B0900F5E2900069E02413F582E43400F583E00E
:090B19004480F5E8300202D2EE3E
:010B220022B0
:100B230075FE8543FF20D2AFC201E4900069F090C7
:100B3300004BF0120D45E4FF120DC7EF2401FDE455
:100B430033FC7E0B7FB8120828900064EEF0A3EF0D
:100B5300F0E4FF120EC41207B5120DC7EFC454F030
:100B6300FEC006E4FF120DC7D0E02FF5E17F0412AB
:100B73000DC7EF6008E5E254804480F5E27F01127F
:100B83000DC78FE3120CF943A910900013E04480C2
:080B9300F5E8120BFB020E6AEB
:030F5900D2EE22B3
:100E2000E4FD90004BE0547FF0D2EE90004BE020C8
:100E3000E7127FE87E03120EE343CF100DEDC3945B
:040E40003240E82232
:010E4400228B
:100BFB00750820120E20E4F509E509C39529501B51
:100C0B00E5091207071207D5E509120715EEF0A340
:100C1B00EFF0AF09120A2A050980DEAF081508EFBD
:100C2B0070D1120E8E120F228F08120E20E4F509CE
:100C3B00E509C395295009AF091208E3050980F0AE
:070C4B00AF081508EF70E38C
:010C5200227F
:100E6A00E4FFEFC39529501B75F002EF12070AE061
:100E7A00FCA3E0FD75F002EF120715ECF0A3EDF00C
:030E8A000F80DFF7
:010E8D002242
:100E4500E490006AF0F511E511C39529500EAF1134
:100E55001208E3AF11120100051180EBAF24AE2398
:040E6500AD22AC21ED
:010E69002266
:020100008F125C
:10010200E4F51A75F002EF1207151207D5E512127F
:10011200070A1207F8F514EC9EF513E47F01FEFDC1
:10012200FCA912A8011208C48F288E278D268C25BF
:10013200AF12120DF48E188F19C3E5149519E51834
:1001420012073740057515018003E4F515E51564BE
:100152000160030202877425251212072AE0C39464
:10016200FA500A7425251212072AE004F01207A099
:10017200E4FBFAF9F8C31208A0600302026A9000D5
:1001820000E0F517120F56EF6028E4F515F516E5B5
:1001920016C39529500F120726E0C39401400205A9
:1001A20015051680EAE515C394034006740F25175A
:1001B200F5177425251212072AE0C395175003027A
:1001C200026AE4F515120F2AEF7051F516E516C30F
:1001D2009529501AE51265166010120F0F120726A4
:1001E200E0C39F40057515018004051680DF120FDC
:1001F20056EF7052E515704EF516E516C395295067
:1002020045E51265166011120F0F742B25161207A1
:10021200CDE0C39F4002802B051680DE120F56EF01
:100222007024F517F516E516C39529500F12072607
:10023200E0C3940240020517051680EAE517C3944D
:10024200034003751501E515B40102D200E524450A
:1002520028FFE5234527FEE5224526FDE521452524
:100262008F248E238D22F521120740E4F0120759C4
:10027200E4F012071BE4F0A3F0740D2512F582E4FA
:10028200340002045DAF12120EAF120732400812A0
:1002920007C9E004F0800B90006AE004F01207C97D
:1002A200E4F012080CC3E49FFDE49EFCC3E5149D38
:1002B200EC12073740661207325061120740E4120F
:1002C200076712077F60030203CA12071BE5138543
:1002D20014F012087D120EFA12071BE0FCA3E0C311
:1002E20012074F4009120710E475F0018021120E27
:1002F200FAC3E49FFFE49EFE12071BE0FCA3E0C3E7
:1003020012074F40030203CA12071074FFF5F012DE
:10031200087D12071BE4F0A3F00203CA90004EE02E
:10032200FFFD3395E0FCC3E49DFDE49CFCC3E514B2
:100332009DEC120737505A120740120765E4F0127B
:100342000740E0FE75F00A84E5F07037EEC394646E
:10035200400E120740E4F0D20190006104F08023C5
:10036200120710C083C082E0FCA3E0FDEFA2E713F6
:10037200FF3395E0FEC3ED9FFFEC9ED082D083F069
:10038200A3EFF0900063E06512703D74FFF002038A
:10039200CA12080C120732402F12074012077F7050
:1003A20027120768120765E0B4201D120768E4F0FF
:1003B20090004EE0A2E713A2E713FF3395E0FE128E
:1003C2000710EE8FF012087D1207A04D4E4F7003FA
:1003D200020469E519AE187802CEA2E713CE13D84B
:1003E200F8FFC3E5199FFFE5189EFEC312073350BD
:1003F2006F120759E004F0120F328F17E4F516E579
:1004020016C39529500F120726E0C3940140020536
:1004120015051680EAE515C394034006900000E036
:10042200F517120759E0C39517407A120759E4F0FD
:10043200AF28AE27AD26AC25120893E5245FFFE571
:10044200235EFEE5225DFDE5215C8F248E238D2255
:10045200F52174252512F582E43400F583E4F022B7
:10046200120759E014F0227425251212072A1207E6
:100472007F7005AF12120A2AE529146512702690C0
:10048200006AE0C39529401DE4F516E516C39529D7
:10049200500D120726E06003751501051680ECE584
:0504A200157002C2000C
:0104A7002232
:100E8E00E4FFEFC39529501875F002EF12070AE040
:100E9E00FCA3E0FDEF120776ECF0A3EDF00F80E27D
:010EAE002221
:0208E3008F1371
:1008E500EF1206F71207F8F515EC9EF514AF131283
:1008F5000DF4AD07AC06D3E5159DEC120797500B2B
:10090500C3E49DFFE49C120791500B120705E0FE1E
:10091500A3E0FF02098BECA2E713FEED13FFD31250
:100925000793500BC3E49FFFE49E120791502712D3
:100935000774E0FCA3E0FDECC313FEED13FFC3ED6C
:100945009FFDEC9EFC120705E0C313FEA3E0132DEB
:10095500FFEC3EFE8030120774E0FCA3E0FDAE0420
:100965007803CEC313CE13D8F9FFC3ED9FFDEC9EDC
:10097500FC120705E0FEA3E07803CEC313CE13D81F
:10098500F92DFFEC3EFE120774EEF0A3EFF0E51330
:080995001206F7EEF0A3EFF0EB
:01099D002237
:030F5C00A20122CD
:030F5F00D201229A
:100CF900E4FFEFC39529502B74252F12072AE4F03E
:100D0900743D2F120744E4F0745B2F12075DE4F081
:100D1900EF12071DE4F0A3F0742B2F1207CDE4F0B6
:100D29000F80CFE4F524F523F522F52190006374B3
:0B0D3900FFF0E4900066F0A3F0C201A0
:010D4400228C
:0205D8008F1181
:1005DA00900068E0C394034035E4F0900061E07055
:1005EA0022F512E512C39529501975F002E5121287
:1005FA0007791207D5E512120715EEF0A3EFF005F9
:10060A001280E0120CF9C201E4900061F02290001D
:10061A0062E004F0E0B51108120E8EE4900063F077
:10062A00900062E0D3951150030206F6E4F512E554
:10063A0012C39529507A75F002E51212077912074A
:10064A00D5E51212070A1207F8FFEC9EAD07FC90D7
:10065A000061E070291207FF7802C333CE33CED887
:10066A00F912074C4040E49BFFE49AFEEF7802C37C
:10067A0033CE33CED8F9C312074D502A803212072F
:10068A00FF7803C333CE33CED8F912074C4017E4B0
:10069A009BFFE49AFEEF7803C333CE33CED8F9FF3B
:1006AA00C312074E400AAF121208E30512020639B6
:1006BA00E512B52906900063E004F0E51175F0082B
:1006CA009000621207DE4024E4F0C200900068E065
:1006DA0004F0E51175F0049000631207DE400DE4A2
:0C06EA00900068F0120E6A120CF9C201B8
:0106F60022E1
:1009AA00020B9BE493A3F8E493A34003F68001F2BD
:1009BA0008DFF48029E493A3F85407240CC8C3334E
:1009CA00C4540F4420C8834004F456800146F6DF1D
:1009DA00E4800B0102040810204080900F19E47E85
:1009EA00019360BCA3FF543F30E509541FFEE49312
:1009FA00A360010ECF54C025E060A840B8E493A3D9
:100A0A00FAE493A3F8E493A3C8C582C8CAC583CA03
:100A1A00F0A3C8C582C8CAC583CADFE9DEE780BEBB
:010F210000CF
:10081600EF8DF0A4A8F0CF8CF0A428CE8DF0A42EF6
:02082600FE22B0
:10082800BC000BBE0029EF8DF084FFADF022E4CCB4
:10083800F875F008EF2FFFEE33FEEC33FCEE9DEC7D
:10084800984005FCEE9DFE0FD5F0E9E4CEFD22EDC3
:10085800F8F5F0EE8420D21CFEADF075F008EF2F0D
:10086800FFED33FD4007985006D5F0F222C398FDFE
:050878000FD5F0EA229B
:10087D00C5F0F8A3E028F0C5F0F8E5821582700206
:06088D001583E038F022A3
:0D089300CFF4CFCEF4CECDF4CDCCF4CC22FA
:1008A000EB9FF5F0EA9E42F0E99D42F0E89C45F0AE
:0108B0002225
:1008B100E8600FECC313FCED13FDEE13FEEF13FF25
:0308C100D8F12249
:1008C400E8600FEFC333FFEE33FEED33FDEC33FC92
:0308D400D8F12236
:0C08D700A42582F582E5F03583F583222C
:00000001FF
