:0300000002099E54
:0C099E00787FE4F6D8FD7581350209E58C
:08101600022100FF022B00FF84
:04108A005390EF226E
:04108E004390102259
:041092005380EF2276
:041096004380102261
:04109A0053D8FD2208
:04109E0043D802220F
:0410A20053907F22C6
:0410A60043908022D1
:05108500AF9F7E002278
:100F2600759AFF759BFF7591FF7592FF75A1FF7509
:100F3600A2FF75D9FF75DAFF7580FF7590FF75D82A
:070F4600FF75A0FFD2AF22EE
:100FF100758E07438901758A20758CD1C28CD2A95F
:03100100D28C226C
:0D102700438F80759D88759E0343A90122AB
:100E1200120F2612109612109A1210A212102712F6
:100E22000FF1120B2390004BE030E7F95480F012DF
:100E320004A88F2A8E298D288C27EC4D4E4F6008EE
:100E420012108A12109E800612108E12109A121020
:030E5200AD80D29E
:03000B00020B9B4A
:100B9B00C0E0C0F0C083C082C0D075D000C000C020
:100BAB0001C002C003C004C005C006C007758A207F
:100BBB00758CD1E5262401F526E43525F525E4359C
:100BCB0024F524E43523F523E47FE87E03FDFCAB19
:100BDB0026AA25A924A823C31208A0400E75260017
:100BEB00752500752400752300B284D007D006D07C
:100BFB0005D004D003D002D001D000D0D0D082D009
:060C0B0083D0F0D0E032BE
:03001B00020C11C3
:100C1100C0E0C0F0C083C082C0D075D000C000C0A9
:100C210001C002C003C004C005C006C007E52624F8
:100C310001F526E43525F525E43524F524E43523AD
:100C4100F523E47F507EC3FDFCAB26AA25A924A889
:100C510023C31208A0400E752600752500752400D7
:100C6100752300B284D007D006D005D004D003D0BC
:100C710002D001D000D0D0D082D083D0F0D0E032E9
:03003B00020E555D
:100E5500C0E0C0D075D000C006C007E59D30E624CF
:100E6500539DBFE59D5407752100F522E5217014BA
:100E7500E52224FE700E121085EF4E6007121085D4
:0D0E85008E2B8F2CD007D006D0D0D0E032BD
:100D2D000000000000000005000A0BB800C80064B8
:100D3D0000020000000100040000FFFFFFFFFFFFA5
:100D4D0000140213040809050361021304080905C0
:100D5D0003A10213040809050341021304080A053F
:100D6D00035B021304080C0502DD021304080C05D5
:020D7D0003066B
:04101E00410061002C
:0B104D00900D37E493FE740193FF2226
:0B105800900D3BE493FE740193FF2217
:08106D00900D35740193FF2280
:0310AA007F0122A1
:100EFA00AD07ED75F008A42455F582E4340DF583A9
:100F0A00E493FEED75F008A42456F582E4340DF559
:0C0F1A0083E4937C002400FFEC3EFE22E8
:10100400EF75F008A42452F582E4340DF583E493DB
:02101400FF22B9
:08107500900D2F740193FF227E
:0D10340074432FF582E43400F583E0FF22C1
:08107D00900000E0C313FF2204
:0A106300900000E075F00384FF2206
:100FDC00120EFAEF7803C333CE33CED8F9FF7C0070
:050FEC007D0A02082847
:100CD900E4FBFAF50BF50AF509F508750B0FF50AAA
:100CE900750906F508EBC39417748094805032AFE8
:100CF9000BAE0AAD09AC0878011208B18F0B8E0A48
:100D09008D098C0830D71774132AF582E43400F55D
:100D190083EBF00AEAC394067480948050030B8035
:030D2900C48A3544
:010D2C0022A4
:100ECD00EF14601214601414601114601524047072
:100EDD0019900D4F8008900D508003900D51E493A3
:0D0EED00FF22900D41740193FF227F00222F
:100DCB00900D33740193900000F0900D4D740193CE
:100DDB0090004EF0120CD9E4FFEFC395355020EF85
:100DEB0075F008A42453F582E4340DF583E493FEE7
:100DFB0074432FF582E43400F583EEF00F80DAE4D0
:060E0B0090004CF0A3F082
:010E110022BE
:1004A800E4F508F50CF50BF50AF509F510F50FF567
:1004B8000EF50D1210B050030205C4120F728F0C06
:1004C8008E0B8D0A8C09E4FBEBC395355047AF0CB6
:1004D800AE0BAD0AAC0978011208B18F0C8E0B8DEA
:1004E8000A8C0930D72CE47F01FEFDFC74132BF530
:1004F80082E43400F583E0F9F81208C4E5104FF5FA
:1005080010E50F4EF50FE50E4DF50EE50D4CF50D0A
:1005180005080B80B3AF087E00C3EF940274809483
:10052800804018D200EF9403748094804005121024
:10053800B38008121075EF6002C20020002CE4FF9F
:10054800FEFDFCAB10AA0FA90EA80DC31208A060EF
:100558001090004DE004F0700690004CE004F0802C
:1005680020E490004CF0A3F0801790004AE004F0DB
:100578007006900049E004F0E4F510F50FF50EF56B
:100588000D12104DD390004DE09F90004CE09E401E
:100598000A1210B3E490004CF0A3F0D390004AE0A4
:1005A800942C900049E09401401D1210B390006112
:1005B8007401F0E4900049F0A3F0800B900D3DE445
:0F05C800740193FF1205D8AF10AE0FAD0EAC0D3E
:0105D7002201
:03005B00020E9200
:100E9200C0E0C0F0C083C082C0D075D000C000C026
:100EA20001C002C003C004C005C006C007120AA9DF
:100EB200D007D006D005D004D003D002D001D00094
:0B0EC200D0D0D082D083D0F0D0E0323E
:041022004100680021
:1006F70075F00290004F1208D7E0FEA3E0FFE51364
:1007070075F0029000190208D7E51275F002900003
:10071700010208D7E51275F0029000310208D7747C
:10072700252516F582E43400F58322D3E5149FEEE0
:100737006480F8E51364809822743D2512F582E4FD
:100747003400F58322D3FFED9FEE6480F8EC6480DC
:100757009822745B2512F582E43400F58322E004C5
:10076700F0740D2512F582E43400F58322E5137544
:10077700F00290004F0208D7E4F0FFFEFDFCAB301B
:10078700AA2FA92EA82DC30208A0FEC3E5159FEE28
:100797006480F8E51464809822E5305534FFE52F2E
:1007A7005533FEE52E5532FDE52D5531FC227E00F1
:1007B700900064E0FCA3E0FD1208168EE78FE67F49
:1007C7000222742B2512F582E43400F58322E0FE21
:1007D700A3E0FF75F00222A4FFE0C39FE5F0648069
:1007E700F8748098227D0A120828AD037C0002085D
:1007F70016E0FCA3E0C39F2290004EE0FB3395E098
:0F080700FAEBAE022290004EE0FF3395E0FE22A6
:0C104100EF4E6007EF1F70F81E80F522D4
:020A2A008F1B20
:100A2C0012103490006BEFF0AF1B121004EFFB9020
:100A3C000065E025E0FF900064E033FE7C001207C7
:100A4C00ECE51B1207121207F8EC9E500990006B94
:100A5C00E06049148036AF1B121004EFFB90006469
:100A6C00E0FEA3E0FF7C007D071208161207EC7570
:100A7C00F002E51B120715E0FCA3E0D39FEC9E40AF
:100A8C001B90006BE0FF647E6012EF04FF74432543
:0C0A9C001BF582E43400F583EFF0D2017A
:010AA800222B
:100AA900C202900069E0120707E5E5F0A3E5E4F06A
:100AB900900069E004F0E0C39535400BE4F0900044
:100AC9004BE04480F08002D2027F02120ECDEFC4C7
:100AD90054F0F5E1900069E0FF1210041207B51215
:100AE9000ECDEFC454F0FEC006E4FF120ECDD0E0E7
:100AF9002FF5E1900069E0FF121034E5E254804FD0
:100B0900F5E2900069E02413F582E43400F583E00E
:090B19004480F5E8300202D2EE3E
:010B220022B0
:100B230075FE8543FF20D2AFC201E4900069F090C7
:100B3300004BF0120DCBE4FF120ECDEF2401FDE4C8
:100B430033FC7E0B7FB8120828900064EEF0A3EF0D
:100B5300F0E4FF1210041207B5120ECDEFC454F0E7
:100B6300FEC006E4FF120ECDD0E02FF5E17F0412A4
:100B73000ECDEF6008E5E254804480F5E27F011278
:100B83000ECD8FE3120D7F43A910900013E0448034
:080B9300F5E8120C81020F9736
:0310AD00D2EE225E
:100F4D00E4FD90004BE0547FF0D2EE90004BE0209A
:100F5D00E7127FE87E0312104143CF100DEDC394CD
:040F6D003240E82204
:010F7100225D
:100C8100750820120F4DE4F509E509C39535501B90
:100C9100E5091207071207D5E509120715EEF0A3BA
:100CA100EFF0AF09120A2A050980DEAF081508EF37
:100CB10070D1120FBB12106D8F08120F4DE4F509A0
:100CC100E509C395355009AF091208E3050980F01C
:070CD100AF081508EF70E306
:010CD80022F9
:100F9700E4FFEFC39535501B75F002EF12070AE027
:100FA700FCA3E0FD75F002EF120715ECF0A3EDF0DE
:030FB7000F80DFC9
:010FBA002214
:100F7200E490006AF0F511E511C39535500EAF11FA
:100F82001208E3AF11120100051180EBAF30AE2F52
:040F9200AD2EAC2DA7
:010F96002238
:020100008F125C
:10010200E4F51A75F002EF1207151207D5E512127F
:10011200070A1207F8F514EC9EF513E47F01FEFDC1
:10012200FCA912A8011208C48F348E338D328C318F
:10013200AF12120EFA8E188F19C3E5149519E5182D
:1001420012073740057515018003E4F515E51564BE
:100152000160030202877425251212072AE0C39464
:10016200FA500A7425251212072AE004F01207A099
:10017200E4FBFAF9F8C31208A0600302026A9000D5
:1001820000E0F5171210AAEF6028E4F515F516E560
:1001920016C39535500F120726E0C394014002059D
:1001A20015051680EAE515C394034006740F25175A
:1001B200F5177425251212072AE0C395175003027A
:1001C200026AE4F515121075EF7051F516E516C3C3
:1001D2009535501AE5126516601012106312072643
:1001E200E0C39F40057515018004051680DF1210DB
:1001F200AAEF7052E515704EF516E516C395355007
:1002020045E51265166011121063742B251612074C
:10021200CDE0C39F4002802B051680DE1210AAEFAC
:100222007024F517F516E516C39535500F120726FB
:10023200E0C3940240020517051680EAE517C3944D
:10024200034003751501E515B40102D200E53045FE
:1002520034FFE52F4533FEE52E4532FDE52D4531D0
:100262008F308E2F8D2EF52D120740E4F012075994
:10027200E4F012071BE4F0A3F0740D2512F582E4FA
:10028200340002045DAF12120FDC12073240081272
:1002920007C9E004F0800B90006AE004F01207C97D
:1002A200E4F012080CC3E49FFDE49EFCC3E5149D38
:1002B200EC12073740661207325061120740E4120F
:1002C200076712077F60030203CA12071BE5138543
:1002D20014F012087D12105812071BE0FCA3E0C3B1
:1002E20012074F4009120710E475F0018021121025
:1002F20058C3E49FFFE49EFE12071BE0FCA3E0C389
:1003020012074F40030203CA12071074FFF5F012DE
:10031200087D12071BE4F0A3F00203CA90004EE02E
:10032200FFFD3395E0FCC3E49DFDE49CFCC3E514B2
:100332009DEC120737505A120740120765E4F0127B
:100342000740E0FE75F00A84E5F07037EEC394646E
:10035200400E120740E4F0D20190006104F08023C5
:10036200120710C083C082E0FCA3E0FDEFA2E713F6
:10037200FF3395E0FEC3ED9FFFEC9ED082D083F069
:10038200A3EFF0900063E06512703D74FFF002038A
:10039200CA12080C120732402F12074012077F7050
:1003A20027120768120765E0B4201D120768E4F0FF
:1003B20090004EE0A2E713A2E713FF3395E0FE128E
:1003C2000710EE8FF012087D1207A04D4E4F7003FA
:1003D200020469E519AE187802CEA2E713CE13D84B
:1003E200F8FFC3E5199FFFE5189EFEC312073350BD
:1003F2006F120759E004F012107D8F17E4F516E52D
:1004020016C39535500F120726E0C394014002052A
:1004120015051680EAE515C394034006900000E036
:10042200F517120759E0C39517407A120759E4F0FD
:10043200AF34AE33AD32AC31120893E5305FFFE535
:100442002F5EFEE52E5DFDE52D5C8F308E2F8D2E0D
:10045200F52D74252512F582E43400F583E4F022AB
:10046200120759E014F0227425251212072A1207E6
:100472007F7005AF12120A2AE535146512702690B4
:10048200006AE0C39535401DE4F516E516C39535BF
:10049200500D120726E06003751501051680ECE584
:0504A200157002C2000C
:0104A7002232
:100FBB00E4FFEFC39535501875F002EF12070AE006
:100FCB00FCA3E0FDEF120776ECF0A3EDF00F80E24F
:010FDB0022F3
:0208E3008F1371
:1008E500EF1206F71207F8F515EC9EF514AF131283
:1008F5000EFAAD07AC06D3E5159DEC120797500B24
:10090500C3E49DFFE49C120791500B120705E0FE1E
:10091500A3E0FF02098BECA2E713FEED13FFD31250
:100925000793500BC3E49FFFE49E120791502712D3
:100935000774E0FCA3E0FDECC313FEED13FFC3ED6C
:100945009FFDEC9EFC120705E0C313FEA3E0132DEB
:10095500FFEC3EFE8030120774E0FCA3E0FDAE0420
:100965007803CEC313CE13D8F9FFC3ED9FFDEC9EDC
:10097500FC120705E0FEA3E07803CEC313CE13D81F
:10098500F92DFFEC3EFE120774EEF0A3EFF0E51330
:080995001206F7EEF0A3EFF0EB
:01099D002237
:0310B000A2012278
:0310B300D2012245
:100D7F00E4FFEFC39535502B74252F12072AE4F0AB
:100D8F00743D2F120744E4F0745B2F12075DE4F0FB
:100D9F00EF12071DE4F0A3F0742B2F1207CDE4F030
:100DAF000F80CFE4F530F52FF52EF52D90006374FD
:0B0DBF00FFF0E4900066F0A3F0C2011A
:010DCA002206
:0205D8008F1181
:1005DA00900068E0C394034035E4F0900061E07055
:1005EA0022F512E512C39535501975F002E512127B
:1005FA0007791207D5E512120715EEF0A3EFF005F9
:10060A001280E0120D7FC201E4900061F022900096
:10061A0062E004F0E0B51108120FBBE4900063F049
:10062A00900062E0D3951150030206F6E4F512E554
:10063A0012C39535507A75F002E51212077912073E
:10064A00D5E51212070A1207F8FFEC9EAD07FC90D7
:10065A000061E070291207FF7802C333CE33CED887
:10066A00F912074C4040E49BFFE49AFEEF7802C37C
:10067A0033CE33CED8F9C312074D502A803212072F
:10068A00FF7803C333CE33CED8F912074C4017E4B0
:10069A009BFFE49AFEEF7803C333CE33CED8F9FF3B
:1006AA00C312074E400AAF121208E30512020639B6
:1006BA00E512B53506900063E004F0E51175F0081F
:1006CA009000621207DE4024E4F0C200900068E065
:1006DA0004F0E51175F0049000631207DE400DE4A2
:0C06EA00900068F0120F97120D7FC20103
:0106F60022E1
:1009AA00020E12E493A3F8E493A34003F68001F243
:1009BA0008DFF48029E493A3F85407240CC8C3334E
:1009CA00C4540F4420C8834004F456800146F6DF1D
:1009DA00E4800B0102040810204080901016E47E87
:1009EA00019360BCA3FF543F30E509541FFEE49312
:1009FA00A360010ECF54C025E060A840B8E493A3D9
:100A0A00FAE493A3F8E493A3C8C582C8CAC583CA03
:100A1A00F0A3C8C582C8CAC583CADFE9DEE780BEBB
:0110260000C9
:10081600EF8DF0A4A8F0CF8CF0A428CE8DF0A42EF6
:02082600FE22B0
:10082800BC000BBE0029EF8DF084FFADF022E4CCB4
:10083800F875F008EF2FFFEE33FEEC33FCEE9DEC7D
:10084800984005FCEE9DFE0FD5F0E9E4CEFD22EDC3
:10085800F8F5F0EE8420D21CFEADF075F008EF2F0D
:10086800FFED33FD4007985006D5F0F222C398FDFE
:050878000FD5F0EA229B
:10087D00C5F0F8A3E028F0C5F0F8E5821582700206
:06088D001583E038F022A3
:0D089300CFF4CFCEF4CECDF4CDCCF4CC22FA
:1008A000EB9FF5F0EA9E42F0E99D42F0E89C45F0AE
:0108B0002225
:1008B100E8600FECC313FCED13FDEE13FEEF13FF25
:0308C100D8F12249
:1008C400E8600FEFC333FFEE33FEED33FDEC33FC92
:0308D400D8F12236
:0C08D700A42582F582E5F03583F583222C
:00000001FF
